:020000040800F2
:10000000F00400209D0100080B1500080F110008E6
:1000100009150008810300084517000800000000CA
:100020000000000000000000000000005916000859
:1000300083030008000000000D1500085B1600088F
:10004000B7010008B7010008B7010008B7010008B0
:10005000B7010008B701000885030008B7010008D0
:10006000B7010008B7010008B7010008B701000890
:10007000B7010008B7010008B7010008B701000880
:10008000B7010008B7010008B7010008B701000870
:10009000B7010008B7010008B7010008B701000860
:1000A000B7010008B7010008B7010008B701000850
:1000B000B7010008B7010008B7010008B701000840
:1000C000B7010008B7010008B7010008B701000830
:1000D000B7010008B7010008B7010008B701000820
:1000E000B7010008B7010008B7010008B701000810
:1000F000B7010008B7010008B7010008B701000800
:10010000B7010008B7010008B7010008B7010008EF
:10011000B7010008B7010008B7010008B7010008DF
:10012000B7010008B7010008B7010008B7010008CF
:10013000B7010008B7010008B7010008B7010008BF
:10014000B7010008B7010008B7010008B7010008AF
:10015000B7010008B7010008B7010008B70100089F
:10016000B7010008B7010008B7010008B70100088F
:10017000B7010008B7010008B7010008000000003F
:10018000B7010008B7010008DFF80CD000F08CF8C8
:100190000048004785170008F00400200648804703
:1001A00006480047FEE7FEE7FEE7FEE7FEE7FEE75C
:1001B000FEE7FEE7FEE7FEE7F1160008890100080A
:1001C0002DE9F05F0546002092469B46884606468C
:1001D000814640241BE0284641464746224600F01F
:1001E00053F853465A46C01A914110D31146184647
:1001F000224600F03AF82D1A67EB01084F462246D6
:100200000120002100F031F817EB00094E41201EBB
:10021000A4F10104DFDC484631462A464346BDE8E6
:10022000F09F40EA01039B0703D009E008C9121FB1
:1002300008C0042AFAD203E011F8013B00F8013BA0
:10024000521EF9D27047D2B201E000F8012B491ECC
:10025000FBD270470022F6E710B513460A46044663
:100260001946FFF7F0FF204610BD202A04DB203A94
:1002700000FA02F1002070479140C2F1200320FAF9
:1002800003F3194390407047202A04DB203A21FAF7
:1002900002F00021704721FA02F3D040C2F120029F
:1002A0009140084319467047064C074D06E0E06848
:1002B00040F0010394E8070098471034AC42F6D3AD
:1002C000FFF766FF5C1800087C18000826480168E4
:1002D000264A1368264CD4F800B000EE901A01EEBE
:1002E000103A01EE90BA81EE210ADFED220A4FF0BA
:1002F000020A4FF0000505FB0AF606F1010705F0BA
:100300000108B8F1000F28D02AE0B946F0EE401AF3
:10031000B9F1010F06D061EE801AA9F10109B9F116
:10032000010FF8D102EE107AB8EE422AC1EE822A0D
:1003300082EE813A70EE830A05F10105032DDAD1D0
:10034000DFED0D3A9FED0D4A60EEA30AC0EE840A80
:1003500010EE900A5A46634605E0B7EE001AD4E75D
:10036000BFEE001AD1E77047E0000020E400002053
:10037000E80000200000000000003443D00F494096
:10038000FEE77047012000F00DB80000034901208E
:1003900008704103024800F0E9B800001C0000208A
:1003A000000C0240044910B50A68024202D00860FD
:1003B000FFF7ECFF10BD0000143C01402DE9F84FA1
:1003C000DFF87CB100224FF001084FF0030A4FF034
:1003D0000F090BF1040E00BF0B6808FA02F423406A
:1003E000A3426ED14D68022D01D0122D0ED1D50839
:1003F00000EB850CDCF820505607F70E09FA07F6DB
:10040000B5430E69BE402E43CCF820600668550007
:100410000F790AFA05FC07F0030726EA0C06AF403D
:10042000374307604E68012E05D0022E03D0112EEF
:1004300001D0122E0ED18668CF6826EA0C06AF4096
:10044000374387604668A6430C79C4F30014944090
:1004500034434460C6688C6826EA0C06AC403443DA
:10046000C4604C68E40065D5364C256845F4804589
:100470002560246822F0030504F480440094324C83
:100480002E19D6F8084895072F0F09FA07F5AC433F
:100490002E4DA84201D1002524E02D4DA84201D1C6
:1004A00001251FE02B4DA84201D102251AE02A4D5B
:1004B000A84201D1032515E0284DA84202D1042508
:1004C00010E037E0264DA84201D105250AE0254D70
:1004D000A84201D1062505E0234DA84201D10725F8
:1004E00000E00825BD402543C6F80858DBF8004069
:1004F0005D464E689C43F60300D51C432C60DEF835
:10050000004075464E689C43B60300D51C432C60E2
:100510000B4D08352C684E689C43F60200D51C43F1
:100520002C60074D0C352C684E689C43B60200D5F4
:100530001C432C60521C102AFFF44EAFBDE8F88F0C
:10054000003C0140443802400030014000000240BD
:100550000004024000080240000C0240001002406B
:100560000014024000180240001C0240426931EAB7
:10057000020200D10904816170470AB181617047AC
:100580000904FBE701488068704700002000002054
:100590000248816802781144816070472000002081
:1005A0000B4810B5016841F400710160016841F425
:1005B00080610160016841F480710160032000F0F6
:1005C0006FF8002000F006F800F024F8002010BDBD
:1005D000003C024070B50D4D04464FF47A71287806
:1005E000B1FBF0F00A490968B1FBF0F000F07BFDC7
:1005F00048B9102C07D200222146501E00F030F8D6
:1006000000206C6070BD012070BD00002000002043
:100610002C0000200A4808B5016841F480410160BF
:10062000006800F4804000900548001F016841F018
:1006300080510160006800F08050009008BD00000B
:1006400044380240002809DB00F01F0201219140DC
:100650004009800000F1E020C0F800117047000060
:10066000F0B40E4B1B680C46C3F30223C3F107051D
:10067000042D00D90425191D072901D2002300E00B
:10068000DB1E012606FA05F1491E214099409E40D5
:10069000761E16403143F0BC01F055B80CED00E079
:1006A000064900F0070208684FF6FF03184040EAC9
:1006B0000220034A10430860704700000CED00E080
:1006C0000000FA052DE9F0470E46050065D0DFF879
:1006D0001481D8F80000F7B200F00F00B04207D242
:1006E00088F80070D8F8000000F00F00B04254D134
:1006F00028683D4C810712D5400703D5206840F497
:10070000E05020602878000703D5206840F460405E
:1007100020602068A96820F0F00008432060287855
:10072000C0072DD0304968680839012812D0022846
:1007300013D0032811D00968890700292DDA216810
:1007400021F0030101432160FFF71CFF814641F2C4
:10075000883A0EE009688903EFE709688901ECE748
:10076000FFF710FFA0EB0901514502D90320BDE8B6
:10077000F0872068696800F00C00B0EB810FEFD1C2
:10078000D8F80010404601F00F01B14207D90770B8
:10079000006800F00F00B04201D00120E7E72878A0
:1007A000400705D52068E96820F4E0500843206040
:1007B0002878000706D52068296920F4604040EABF
:1007C000C100206000F016F82168084AC1F3031147
:1007D000515CC840064908600020FFF7FBFE00207E
:1007E000C5E70000003C0240083802404C180008F1
:1007F0002C000020154810B5006810F00C021448B9
:1008000013D04110042A0FD0082A0ED10F4C241FF8
:100810002268236802F03F025B0207D52068C0F31C
:100820008810A0FB010106E0084610BD2168C1F355
:100830008811A1FB00010023FFF7C2FC2168C1F36E
:100840000141491C4900B0FBF1F010BD08380240DD
:100850000024F4002DE9F84F050076D02878DFF861
:10086000F8B2BE4CC00749D0DBF800105846C1F3BF
:100870008101012908D00068C0F3810002280AD153
:10088000201D0068400206D52068800336D56868C0
:100890000028E2D032E06868B0F5803F10D0B0F5B3
:1008A000A02F206810D020F480302060206820F431
:1008B000802020606868A0B1FFF764FE06460CE067
:1008C000206840F48030F4E740F480202060F7E7AF
:1008D000FFF758FE801B642873D820688003F7D583
:1008E0000CE0FFF74FFE064605E000BFFFF74AFEAB
:1008F000801B6428F0D820688003F7D42878DFF8BC
:10090000608280074FF000093ED5DBF800105846A2
:1009100011F00C0F09D00068C0F3810002280BD140
:100920008D48001F0068400206D42068800715D556
:10093000E868012809D111E0E868B8B10120C8F8D9
:100940000000FFF71FFE064605E002E1FFF71AFE72
:10095000801B0228C0D820688007F7D52068296945
:1009600020F0F80040EAC10020600DE0C8F80090D7
:10097000FFF708FE064604E0FFF704FE801B02288E
:100980001FD820688007F7D42878000722D5724E38
:10099000744869696C3671B101210160FFF7F2FD9D
:1009A000074604E0FFF7EEFDC01B022809D83068B7
:1009B0008007F7D50EE0C0F80090FFF7E3FD07468B
:1009C00005E083E0FFF7DEFDC01B02287ED830681B
:1009D0008007F7D42878400768D5DFF87CA1002786
:1009E0000AF1380ADAF80000C0000BD4DAF8001077
:1009F00041F08051CAF80010DAF80000012700F039
:100A000080500090584E3068C00510D4306840F4D3
:100A100080703060FFF7B6FD009005E0FFF7B2FD93
:100A20000099401A022851D83068C005F6D54A4EC0
:100A3000A868683601280FD00528306810D020F04B
:100A400001003060306820F004003060A868B8B160
:100A5000FFF798FD00900FE0306840F00100F4E7E8
:100A600040F004003060F7E7FFF78CFD0099411A71
:100A700041F28830814264D830688007F4D50EE0B6
:100A8000FFF780FD009007E0FFF77CFD0099411A19
:100A900041F28830814254D830688007F4D42FB1B5
:100AA000DAF8001021F08051CAF80010A869C0B32C
:100AB000DBF80010C1F3810102294AD00228484620
:100AC00007D0C8F86000FFF75DFD00E039E005469B
:100AD0003AE04746C8F86000FFF754FD064604E0D8
:100AE000FFF750FD801B02282BD820688001F7D427
:100AF000D5E907010843A96A1C4A490802EB0141EC
:100B00006A6A41EA8211084395F82C1040EA0161B3
:100B10001148001F016001203866FFF733FD0546CC
:100B200005E014E0FFF72EFD401B022809D82068DD
:100B30008001F7D50BE000BFFFF724FD401B022822
:100B400002D90320BDE8F88F20688001F4D400208A
:100B5000F8E70120F6E700000838024000380240BC
:100B600000004742800E4742007000400000FFFF37
:100B700070B5040005D00025A56294F8510010B1AD
:100B800006E0012070BD84F85050204600F030F897
:100B9000022084F851002068016821F040010160C2
:100BA000D4E901010843D4E9031211430843616900
:100BB0000843218B01F400710843E1690843216A6D
:100BC0000843A16A084321680860A069042101EA7A
:100BD0001040616A0843216848602068C16921F4B7
:100BE0000061C1616565012084F85100002070BD7D
:100BF00010B586B0044614216846FFF72BFB134955
:100C00002068884220D112480021026842F48052B4
:100C10000260006800F4805005900D4814380268A6
:100C200042F001020260006800F001000590E0203F
:100C300000900220CDE901010320039005200490DB
:100C400069460448FFF7BAFB06B010BD003001400A
:100C500044380240000002402DE9F84F0446406845
:100C60000025984616460F464FF0040BB0F5827FDC
:100C700001D1A06888B194F85000012818D0012053
:100C800084F85000FFF77EFC814694F851004FF045
:100C9000000A01280ED002257DE084F851B01346E9
:100CA0000A462046CDF8008000F02CF9BDE8F88F08
:100CB0000220FBE7002F6DD0002E6BD084F851B0DE
:100CC000C4F854A0A763A687E687C4F830A0A4F8A8
:100CD00034A0A4F836A0C4F840A0C4F844A0A0688A
:100CE000B0F5004F04D12068016821F48041016013
:100CF00020680168490603D4016841F040010160A1
:100D0000E068D8B139E020688168C90709D0007B64
:100D1000A16B0870A06B401CA063E08F401EE087B1
:100D20000CE0FFF72FFCA0EB0901414503D3B8F11C
:100D3000FF3F03D036E0B8F1000F33D0E08F00283A
:100D4000E1D11DE020688168C90709D0C068A16BA6
:100D50000880A06B801CA063E08F401EE0870CE041
:100D6000FFF710FCA0EB0901414503D3B8F1FF3FA9
:100D700003D017E0B8F1000F14D0E08F0028E1D1C4
:100D80004A464146204600F0C2FB08B1202060657B
:100D9000606D00B10125012084F8510084F850A055
:100DA000284683E70325F6E72DE9F84F044690F837
:100DB000500000271D461646894601280DD04FF0E9
:100DC000010B84F850B0FFF7DDFB804694F851002A
:100DD000BA46012804D002278EE00220BDE8F88F31
:100DE000B9F1000F7DD0002E7BD0032084F8510094
:100DF000C4F854A0C4F83090A686E686C4F838A09B
:100E0000A4F83CA0A4F83EA0C4F844A0C4F840A0B4
:100E1000A068B0F5004F04D12068016841F480411A
:100E2000016020680168490603D4016841F040016F
:100E30000160E068B0F5006F606803D030B3012E48
:100E400024D040E008B1012E1CD1206B216800881D
:100E5000C86006E020688168890709D5216B098888
:100E6000C160206B801C2063E08E401EE08609E09C
:100E7000FFF788FBA0EB0800A84202D3681C01D052
:100E800031E07DB3E08E0028E4D11FE0206B2168C3
:100E90000078087306E020688168890709D5216B0E
:100EA00009780173206B401C2063E08E401EE086B1
:100EB00009E0FFF767FBA0EB0800A84202D3681C1B
:100EC00001D010E075B1E08E0028E4D142462946F9
:100ED000204600F04BFB08B120206065A06820B1DF
:100EE00007E008E0FFE7032706E02068C1688068A4
:100EF0000090606D00B1012784F851B084F850A0D3
:100F000038466BE72DE9F84F044690F8500000276B
:100F10000A9E1D4692468B464FF0010901280ED0CD
:100F2000012084F85000FFF72DFB804694F8510013
:100F3000616801280CD0B1F5827F07D102E0022060
:100F4000BDE8F88FA16809B9042801D00227C2E0E2
:100F5000BBF1000F27D0BAF1000F24D01DB394F8D5
:100F60005100042802D0052084F85100002060655B
:100F7000C4F838A0E587A587C4F830B0E586A58613
:100F80002064606420680168490603D4016841F068
:100F900040010160E068B0F5006F606805D0E8B31B
:100FA000012D46D07FE0012795E008B1012D39D110
:100FB000206B21680088C860206B801C2063E08E55
:100FC000401EE0862EE02068816889070FD5E18EFB
:100FD00069B1B9F1010F0AD1216B0988C160206B99
:100FE000801C2063E08E401EE0864FF000092068E0
:100FF0008168C9070CD0E18F51B1C068A16B08802E
:10100000A06B801CA063E08F401EE0874FF00109B9
:10101000FFF7B8FAA0EB0800B04200E009E001D306
:10102000701C50D1E08E0028CDD1E08F0028CAD1AD
:101030003FE0206B216800780873206B401C206320
:10104000E08E401EE0862EE02068816889070FD57B
:10105000E18E69B1B9F1010F0AD1216B09780173F1
:10106000206B401C2063E08E401EE0864FF000099C
:1010700020688168C9070CD0E18F51B1C068A16BAD
:101080000870A06B401CA063E08F401EE0874FF00B
:101090000109FFF777FAA0EB0800B04202D3701CF9
:1010A00001D010E07EB1E08E0028CDD1E08F002885
:1010B000CAD142463146204600F058FA28B10127ED
:1010C0002020606507E0032705E0A06818B92068C4
:1010D000C16880680090012084F85100002084F8E5
:1010E000500038462CE710B5401EB0F1807F01D388
:1010F000012010BD4FF0E02460610F21601700F067
:1011000022FB0020A06107202061002010BDFEE727
:101110003EB5044602226946282000F0DDF89DF81D
:1011200000009DF80110022200EB0120ADF8040040
:1011300069462A2000F0D0F89DF800009DF80110C3
:10114000022200EB0120ADF8060069462C2000F0D9
:10115000C3F89DF800009DF8011000EB0120ADF8E8
:10116000080001982060BDF80800A0803EBD000086
:101170001CB56846FFF7CCFFBDF90000BDF90210B1
:1011800000EE100A1348B8EEC00A90ED001AD0ED38
:10119000041A90ED052A60EE010A90ED010A10EEA6
:1011A000A10A00EE901ABDF90410F8EEE00A60EE14
:1011B000811AD0ED020A51EE820A01EE901A90EDEA
:1011C000062AF8EEE11A61EE811A90ED031A11EE8B
:1011D000821A1CBD0000002038B50C4600218DF895
:1011E0000010014658222748FFF71BF8E07801223B
:1011F00000F007008DF80000217801F0F0010143B4
:101200008DF800106946202000F094F8A0786178ED
:1012100000F0C00001F0380101438DF800100122F8
:101220006946242000F086F8207938B188208DF8AE
:10123000000001226946232000F07CF86178124802
:10124000102916D003DC39B108290CD107E0182980
:1012500012D0202907D112E09FED0C0A01E09FED8A
:101260000C0A80ED000A012208210A48FFF785F9DF
:1012700038BD9FED090AF4E79FED080AF1E79FEDFD
:10128000080AEEE730000020000000208FC2753D04
:101290008FC2F53D00100240EC51383E8FC2753EC2
:1012A00048E13A3F38B50546FFF76CF9044601229C
:1012B0006946272000F010F89DF80000400708D18B
:1012C000FFF760F9001BA842F1D39DF8000040072A
:1012D00000D0012038BD0000F8B540F08000134E6A
:1012E00015460C468DF80000002208213046FFF715
:1012F00044F90A23012269460D48FFF755FD0A23E8
:101300002A4669460A48FFF7A7FC01220821304611
:10131000FFF733F900206A4605F0030103E0135C90
:101320002354401CC0B28142F9D8F8BD00100240DD
:1013300030000020F8B50E4E14460D468DF8000022
:10134000002208213046FFF718F90A2301226946D6
:101350000848FFF729FD0A23224629460548FFF7DA
:1013600023FD012208213046FFF707F9F8BD0000F0
:10137000001002403000002030EE801AF6EE001A15
:10138000064830EEC00A21EE211ADFED050A80ED95
:10139000011A80EE801A80ED041A704700000020C8
:1013A0000000FA4430EE801AF6EE001A064830EEDD
:1013B000C00A21EE211ADFED050A80ED021A80EE47
:1013C000801A80ED051A7047000000200000FA44E2
:1013D00030EE801AF6EE001A064830EEC00A21EE12
:1013E000211ADFED050A80ED031A80EE801A80EDE8
:1013F000061A7047000000200000FA442DE9F04171
:1014000086B014216846FEF725FF2A4800240168AB
:1014100041F010010160016801F0100105910168BF
:1014200041F001010160016801F0010105910168CD
:1014300041F0080101600068DFF87C8000F00800DE
:101440000590002208214046FFF797F81B4F4FF404
:101450007046002231463846FFF78FF8082000908A
:101460000125CDE90154694640460394FEF7A6FFE5
:10147000CDE90054694612480294FEF79FFF00969A
:10148000CDE90154694638460394FEF797FF0D48AD
:101490000095CDE9010469464046FEF78FFF002222
:1014A00011460620FFF7DCF80620FFF7CBF806B060
:1014B000BDE8F0813038024000100240000C0240CC
:1014C00000000240000011100E4810B50C490160E8
:1014D0004FF48271416000218160C1604FF400725D
:1014E0000161C0E90512C1610162416281620A21A4
:1014F000C162FFF73DFB002800D0FEE710BD0000F1
:101500000030014088000020FEE770477047F8B5C2
:10151000044640684FF48273984221D1A0684FF48A
:101520008065B0F5004F01D0A8420AD12068066856
:1015300026F0400606606068984211D1A068A84273
:101540000ED000920B4600228021204600F03AF88F
:10155000002804D0606D40F0200060650320F8BDD5
:1015600000920B4600220121EFE7000038B5044647
:101570001248134B0068B0FBF3F04FF47A735843F2
:1015800000906068B0F5827F0DD10B46009200227A
:101590008021204600F016F870B1606D40F0200008
:1015A0006065032038BD009830B1401E009020686F
:1015B0008068C0430006F6D5002038BD2C0000200E
:1015C00000366E012DE9F0411D4617460E460446D1
:1015D000DDF8188008E0681C06D0FEF7D3FFA0EB0A
:1015E0000800A8420BD255B12068806836EA000096
:1015F00030D00020B842EED10020BDE8F081206854
:10160000416821F0E00141606068B0F5827F0BD154
:10161000A068B0F5004F02D0B0F5806F04D120680B
:10162000016821F040010160A06AB0F5005F09D1B6
:101630002068016821F4005101602068016841F4CC
:1016400000510160012084F85100002084F850000E
:101650000320D2E70120CDE77047FEF799BF0000D5
:1016600030B593B030216846FEF7F4FD14210CA884
:10167000FEF7F0FD1C480025016841F08051016033
:10168000006800F0805011901848016841F48041D2
:1016900001600068022400F4804011900120039052
:1016A00010200490009406940820CDE907503220C1
:1016B000CDE9090407200B906846FFF7CBF800B18D
:1016C000FEE70CA90F2081E831004FF4A0500F90E5
:1016D0004FF48050109001210CA8FEF7F3FF002872
:1016E00000D0FEE713B030BD40380240007000402B
:1016F0001048016841F4700101600F48016841F031
:10170000010101600C4A00210832116002680B4B94
:101710001A400260031D0A4A1A60026822F48022FD
:10172000026005480C3001600249580680390860A3
:101730007047000088ED00E000380240FFFFF6FE31
:1017400010300024FEE70907090E002804DB00F131
:10175000E02080F80014704700F00F0000F1E02056
:1017600080F8141D704702E008C8121F08C1002A43
:10177000FAD170477047002001E001C1121F002A12
:10178000FBD170472DE9F0412DED028B82B0FEF7C1
:101790009DFDFEF705FFFFF763FFFFF72FFEFFF745
:1017A00093FE40208DF8000008208DF80100C02035
:1017B0008DF8020007208DF8030001208DF8040049
:1017C00069461B48FFF708FDDFED1A0A9FED1A0A6C
:1017D000FFF7D2FD9FED198A9FED190AF0EE480A36
:1017E000FFF7E0FDF0EE480A9FED160AFFF7F0FD67
:1017F0000F4DDFF8548000244FF47A764FF4805771
:101800003046FFF74FFD48B1FFF7B2FC05F1580233
:101810003946404682EC030AFEF7A8FE641C022CFF
:10182000EEDB02B00020BDEC028BBDE8F0810000D1
:10183000880000200000754400007AC40000824443
:1018400000007FC4000066C4000C024000000000DD
:101850000000000001020304060708097C180008C4
:10186000000000203000000066170008AC180008D7
:1018700030000020C0040000761700088FC2753DBC
:101880000000000000000000000000000000803F99
:101890000000803F0000803F0000000001000000C9
:0C18A00010000000000000000024F40014
:0400000500000000F7
:00000001FF
